{
  "_format": "hh-sol-artifact-1",
  "contractName": "Tributqry",
  "sourceName": "contracts/Tributqry.sol",
  "abi": [
    {
      "inputs": [
        {
          "internalType": "address",
          "name": "_usdcAddress",
          "type": "address"
        }
      ],
      "stateMutability": "nonpayable",
      "type": "constructor"
    },
    {
      "anonymous": false,
      "inputs": [
        {
          "indexed": true,
          "internalType": "bytes32",
          "name": "invoiceId",
          "type": "bytes32"
        },
        {
          "indexed": true,
          "internalType": "address",
          "name": "contractor",
          "type": "address"
        },
        {
          "indexed": true,
          "internalType": "address",
          "name": "client",
          "type": "address"
        }
      ],
      "name": "InvoiceCreated",
      "type": "event"
    },
    {
      "anonymous": false,
      "inputs": [
        {
          "indexed": true,
          "internalType": "bytes32",
          "name": "invoiceId",
          "type": "bytes32"
        },
        {
          "indexed": true,
          "internalType": "address",
          "name": "client",
          "type": "address"
        },
        {
          "indexed": true,
          "internalType": "address",
          "name": "contractor",
          "type": "address"
        },
        {
          "indexed": false,
          "internalType": "uint256",
          "name": "amount",
          "type": "uint256"
        }
      ],
      "name": "InvoicePaid",
      "type": "event"
    },
    {
      "inputs": [
        {
          "internalType": "address",
          "name": "_contractor",
          "type": "address"
        },
        {
          "internalType": "address",
          "name": "_client",
          "type": "address"
        },
        {
          "internalType": "uint256",
          "name": "_amount",
          "type": "uint256"
        }
      ],
      "name": "createInvoice",
      "outputs": [],
      "stateMutability": "nonpayable",
      "type": "function"
    },
    {
      "inputs": [
        {
          "internalType": "bytes32",
          "name": "_invoiceId",
          "type": "bytes32"
        }
      ],
      "name": "getInvoice",
      "outputs": [
        {
          "components": [
            {
              "internalType": "address",
              "name": "issuer",
              "type": "address"
            },
            {
              "internalType": "address",
              "name": "client",
              "type": "address"
            },
            {
              "internalType": "address",
              "name": "contractor",
              "type": "address"
            },
            {
              "internalType": "enum Tributqry.InvoiceStatus",
              "name": "status",
              "type": "uint8"
            },
            {
              "internalType": "uint256",
              "name": "amount",
              "type": "uint256"
            },
            {
              "internalType": "uint256",
              "name": "paidAt",
              "type": "uint256"
            }
          ],
          "internalType": "struct Tributqry.Invoice",
          "name": "",
          "type": "tuple"
        }
      ],
      "stateMutability": "view",
      "type": "function"
    },
    {
      "inputs": [
        {
          "internalType": "bytes32",
          "name": "_invoiceId",
          "type": "bytes32"
        }
      ],
      "name": "payInvoice",
      "outputs": [],
      "stateMutability": "nonpayable",
      "type": "function"
    },
    {
      "inputs": [],
      "name": "usdcToken",
      "outputs": [
        {
          "internalType": "contract IERC20",
          "name": "",
          "type": "address"
        }
      ],
      "stateMutability": "view",
      "type": "function"
    }
  ],
  "bytecode": "0x608060405234801561001057600080fd5b506040516113f83803806113f8833981810160405281019061003291906100db565b806000806101000a81548173ffffffffffffffffffffffffffffffffffffffff021916908373ffffffffffffffffffffffffffffffffffffffff16021790555050610108565b600080fd5b600073ffffffffffffffffffffffffffffffffffffffff82169050919050565b60006100a88261007d565b9050919050565b6100b88161009d565b81146100c357600080fd5b50565b6000815190506100d5816100af565b92915050565b6000602082840312156100f1576100f0610078565b5b60006100ff848285016100c6565b91505092915050565b6112e1806101176000396000f3fe608060405234801561001057600080fd5b506004361061004c5760003560e01c806311eac85514610051578063222ab3471461006f5780632455048a1461008b578063cb802c8b146100a7575b600080fd5b6100596100d7565b6040516100669190610bf1565b60405180910390f35b61008960048036038101906100849190610c47565b6100fb565b005b6100a560048036038101906100a09190610ce8565b6104a6565b005b6100c160048036038101906100bc9190610c47565b6107e7565b6040516100ce9190610e4b565b60405180910390f35b60008054906101000a900473ffffffffffffffffffffffffffffffffffffffff1681565b6000600160008381526020019081526020016000209050600073ffffffffffffffffffffffffffffffffffffffff168160010160009054906101000a900473ffffffffffffffffffffffffffffffffffffffff1673ffffffffffffffffffffffffffffffffffffffff160361016f57600080fd5b8060010160009054906101000a900473ffffffffffffffffffffffffffffffffffffffff1673ffffffffffffffffffffffffffffffffffffffff163373ffffffffffffffffffffffffffffffffffffffff16146101cb57600080fd5b600060028111156101df576101de610d4a565b5b8160020160149054906101000a900460ff16600281111561020357610202610d4a565b5b1461020d57600080fd5b806003015460008054906101000a900473ffffffffffffffffffffffffffffffffffffffff1673ffffffffffffffffffffffffffffffffffffffff1663dd62ed3e33306040518363ffffffff1660e01b815260040161026d929190610e75565b602060405180830381865afa15801561028a573d6000803e3d6000fd5b505050506040513d601f19601f820116820180604052508101906102ae9190610eb3565b10156102b957600080fd5b806003015460008054906101000a900473ffffffffffffffffffffffffffffffffffffffff1673ffffffffffffffffffffffffffffffffffffffff166370a08231336040518263ffffffff1660e01b81526004016103179190610ee0565b602060405180830381865afa158015610334573d6000803e3d6000fd5b505050506040513d601f19601f820116820180604052508101906103589190610eb3565b101561036357600080fd5b6103ba8160010160009054906101000a900473ffffffffffffffffffffffffffffffffffffffff168260020160009054906101000a900473ffffffffffffffffffffffffffffffffffffffff168360030154610a0a565b60018160020160146101000a81548160ff021916908360028111156103e2576103e1610d4a565b5b02179055504281600401819055508060020160009054906101000a900473ffffffffffffffffffffffffffffffffffffffff1673ffffffffffffffffffffffffffffffffffffffff168160010160009054906101000a900473ffffffffffffffffffffffffffffffffffffffff1673ffffffffffffffffffffffffffffffffffffffff16837f787fcac3b50ab9534e1ef2e289dfa2a75eb9481de9f9061d4773232074751582846003015460405161049a9190610f0a565b60405180910390a45050565b8273ffffffffffffffffffffffffffffffffffffffff163373ffffffffffffffffffffffffffffffffffffffff1614610514576040517f08c379a000000000000000000000000000000000000000000000000000000000815260040161050b90610fa8565b60405180910390fd5b8173ffffffffffffffffffffffffffffffffffffffff168373ffffffffffffffffffffffffffffffffffffffff1603610582576040517f08c379a00000000000000000000000000000000000000000000000000000000081526004016105799061103a565b60405180910390fd5b600081116105c5576040517f08c379a00000000000000000000000000000000000000000000000000000000081526004016105bc906110cc565b60405180910390fd5b60006105d2338585610ab0565b90506040518060c001604052803373ffffffffffffffffffffffffffffffffffffffff1681526020018473ffffffffffffffffffffffffffffffffffffffff1681526020018573ffffffffffffffffffffffffffffffffffffffff1681526020016000600281111561064757610646610d4a565b5b815260200183815260200160008152506001600083815260200190815260200160002060008201518160000160006101000a81548173ffffffffffffffffffffffffffffffffffffffff021916908373ffffffffffffffffffffffffffffffffffffffff16021790555060208201518160010160006101000a81548173ffffffffffffffffffffffffffffffffffffffff021916908373ffffffffffffffffffffffffffffffffffffffff16021790555060408201518160020160006101000a81548173ffffffffffffffffffffffffffffffffffffffff021916908373ffffffffffffffffffffffffffffffffffffffff16021790555060608201518160020160146101000a81548160ff0219169083600281111561076a57610769610d4a565b5b02179055506080820151816003015560a082015181600401559050508273ffffffffffffffffffffffffffffffffffffffff168473ffffffffffffffffffffffffffffffffffffffff16827f5243d6c5479d93025de9e138a29c467868f762bb78591e96299fb3f437afcc0460405160405180910390a450505050565b6107ef610ae8565b600073ffffffffffffffffffffffffffffffffffffffff166001600084815260200190815260200160002060010160009054906101000a900473ffffffffffffffffffffffffffffffffffffffff1673ffffffffffffffffffffffffffffffffffffffff1603610894576040517f08c379a000000000000000000000000000000000000000000000000000000000815260040161088b90611138565b60405180910390fd5b600160008381526020019081526020016000206040518060c00160405290816000820160009054906101000a900473ffffffffffffffffffffffffffffffffffffffff1673ffffffffffffffffffffffffffffffffffffffff1673ffffffffffffffffffffffffffffffffffffffff1681526020016001820160009054906101000a900473ffffffffffffffffffffffffffffffffffffffff1673ffffffffffffffffffffffffffffffffffffffff1673ffffffffffffffffffffffffffffffffffffffff1681526020016002820160009054906101000a900473ffffffffffffffffffffffffffffffffffffffff1673ffffffffffffffffffffffffffffffffffffffff1673ffffffffffffffffffffffffffffffffffffffff1681526020016002820160149054906101000a900460ff1660028111156109d9576109d8610d4a565b5b60028111156109eb576109ea610d4a565b5b8152602001600382015481526020016004820154815250509050919050565b60008054906101000a900473ffffffffffffffffffffffffffffffffffffffff1673ffffffffffffffffffffffffffffffffffffffff166323b872dd8484846040518463ffffffff1660e01b8152600401610a6793929190611158565b6020604051808303816000875af1158015610a86573d6000803e3d6000fd5b505050506040513d601f19601f82011682018060405250810190610aaa91906111c7565b50505050565b600083838342604051602001610ac9949392919061125d565b6040516020818303038152906040528051906020012090509392505050565b6040518060c00160405280600073ffffffffffffffffffffffffffffffffffffffff168152602001600073ffffffffffffffffffffffffffffffffffffffff168152602001600073ffffffffffffffffffffffffffffffffffffffff16815260200160006002811115610b5e57610b5d610d4a565b5b815260200160008152602001600081525090565b600073ffffffffffffffffffffffffffffffffffffffff82169050919050565b6000819050919050565b6000610bb7610bb2610bad84610b72565b610b92565b610b72565b9050919050565b6000610bc982610b9c565b9050919050565b6000610bdb82610bbe565b9050919050565b610beb81610bd0565b82525050565b6000602082019050610c066000830184610be2565b92915050565b600080fd5b6000819050919050565b610c2481610c11565b8114610c2f57600080fd5b50565b600081359050610c4181610c1b565b92915050565b600060208284031215610c5d57610c5c610c0c565b5b6000610c6b84828501610c32565b91505092915050565b6000610c7f82610b72565b9050919050565b610c8f81610c74565b8114610c9a57600080fd5b50565b600081359050610cac81610c86565b92915050565b6000819050919050565b610cc581610cb2565b8114610cd057600080fd5b50565b600081359050610ce281610cbc565b92915050565b600080600060608486031215610d0157610d00610c0c565b5b6000610d0f86828701610c9d565b9350506020610d2086828701610c9d565b9250506040610d3186828701610cd3565b9150509250925092565b610d4481610c74565b82525050565b7f4e487b7100000000000000000000000000000000000000000000000000000000600052602160045260246000fd5b60038110610d8a57610d89610d4a565b5b50565b6000819050610d9b82610d79565b919050565b6000610dab82610d8d565b9050919050565b610dbb81610da0565b82525050565b610dca81610cb2565b82525050565b60c082016000820151610de66000850182610d3b565b506020820151610df96020850182610d3b565b506040820151610e0c6040850182610d3b565b506060820151610e1f6060850182610db2565b506080820151610e326080850182610dc1565b5060a0820151610e4560a0850182610dc1565b50505050565b600060c082019050610e606000830184610dd0565b92915050565b610e6f81610c74565b82525050565b6000604082019050610e8a6000830185610e66565b610e976020830184610e66565b9392505050565b600081519050610ead81610cbc565b92915050565b600060208284031215610ec957610ec8610c0c565b5b6000610ed784828501610e9e565b91505092915050565b6000602082019050610ef56000830184610e66565b92915050565b610f0481610cb2565b82525050565b6000602082019050610f1f6000830184610efb565b92915050565b600082825260208201905092915050565b7f4f6e6c7920636f6e74726163746f722063616e2063726561746520696e766f6960008201527f6365000000000000000000000000000000000000000000000000000000000000602082015250565b6000610f92602283610f25565b9150610f9d82610f36565b604082019050919050565b60006020820190508181036000830152610fc181610f85565b9050919050565b7f54686520636c69656e742063616e6e6f742062652074686520636f6e7472616360008201527f746f720000000000000000000000000000000000000000000000000000000000602082015250565b6000611024602383610f25565b915061102f82610fc8565b604082019050919050565b6000602082019050818103600083015261105381611017565b9050919050565b7f54686520616d6f756e74206f662074686520636f6e74726163742063616e6e6f60008201527f7420626520300000000000000000000000000000000000000000000000000000602082015250565b60006110b6602683610f25565b91506110c18261105a565b604082019050919050565b600060208201905081810360008301526110e5816110a9565b9050919050565b7f496e766f69636520646f6573206e6f7420657869737473000000000000000000600082015250565b6000611122601783610f25565b915061112d826110ec565b602082019050919050565b6000602082019050818103600083015261115181611115565b9050919050565b600060608201905061116d6000830186610e66565b61117a6020830185610e66565b6111876040830184610efb565b949350505050565b60008115159050919050565b6111a48161118f565b81146111af57600080fd5b50565b6000815190506111c18161119b565b92915050565b6000602082840312156111dd576111dc610c0c565b5b60006111eb848285016111b2565b91505092915050565b60008160601b9050919050565b600061120c826111f4565b9050919050565b600061121e82611201565b9050919050565b61123661123182610c74565b611213565b82525050565b6000819050919050565b61125761125282610cb2565b61123c565b82525050565b60006112698287611225565b6014820191506112798286611225565b6014820191506112898285611225565b6014820191506112998284611246565b6020820191508190509594505050505056fea26469706673582212207bdbf446a5571e6109f03798c533251862648ab8fc35cb14c285ec86e25e5b8064736f6c634300081c0033",
  "linkReferences": {},
  "deployedLinkReferences": {}
}